:020000040800F2
:10000000481C002001010008F50D0008010D000842
:10001000F10D0008A10100085D20000800000000AB
:100020000000000000000000000000005120000857
:10003000A5010008000000007D1F000855200008F1
:100040001B0100081B0100081B0100081B01000820
:100050001B0100081B0100081B0100081B01000810
:100060001B0100081B0100081B0100081B01000800
:100070001B0100081B0100081B0100081B010008F0
:100080001B0100081B0100081B0100081B010008E0
:100090001B0100081B0100081B0100081B010008D0
:1000A0001B0100081B0100081B0100081B010008C0
:1000B0001B0100081B0100081B0100081B010008B0
:1000C0001B0100081B0100081B0100081B010008A0
:1000D0001B0100081B0100081B0100081B01000890
:1000E0001B0100081B0100081B010008DFF80CD0F1
:1000F00000F018F80048004761200008481C002064
:100100000648804706480047FEE7FEE7FEE7FEE7B1
:10011000FEE7FEE7FEE7FEE7FEE7FEE75920000800
:10012000ED000008064C074D06E0E06840F00103D2
:1001300094E8070098471034AC42F6D3FFF7DAFF93
:10014000383900085839000870B58C1810F8015B70
:1001500015F0070301D110F8013B2A1106D110F860
:10016000012B03E010F8016B01F8016B5B1EF9D164
:100170002B0705D40023521E0DD401F8013BFAE7EA
:1001800010F8013BCB1A921C03E013F8015B01F855
:10019000015B521EF9D5A142D8D3002070BD0000EA
:1001A000FEE700007047000070470000B0B504464D
:1001B00000F016F9054641F25C30C2F2000000780A
:1001C000611C18BF044400BF00F00AF9401BA042A4
:1001D000FAD3B0BD2DE9F04F82B041F20042C4F233
:1001E00001020E680423904208BF0323002E0093EF
:1001F00000F0EC8040F20C4E40F2004CC4F2010ED4
:100200000022C4F2010C01244FF0000A4FF0000953
:100210003FE0012502F00C040F27A7402BEA070757
:1002200005FA04F43C4343F826404E68F303DCF837
:10023000003054BF23EA080343EA0803CCF8003037
:10024000DCF80430B40354BF23EA080343EA08038C
:10025000CCF80430F402DCF8083054BF23EA080379
:1002600043EA0803B402CCF80830DEF800304FF05F
:10027000010454BF23EA080343EA0803CEF8003020
:100280000E680AF1010A36FA0AF302F1040200F0DC
:100290009D8004FA0AFB16EA0B08F1D04B684FF672
:1002A000FF75C1F21005AB4210DC122B50D8DFE80D
:1002B00003F0330A41454F4F4F4F4F4F4F4F4F4F72
:1002C0004F4F4F484C00D1F80C9041E04FF6FF756E
:1002D000C1F22105AB420FDC0025C1F21105AB4292
:1002E0001AD00025C1F21205AB4215D00025C1F28B
:1002F0002105AB4210D02BE00025C1F22205AB4214
:100300000AD00025C1F23105AB4205D00025C1F26B
:100310003205AB421CD100BF8B6843B1012B14BF27
:10032000C0F814B0C0F810B04FF0080910E04FF05A
:1003300004090DE0CB6803F1080909E04FF000095A
:1003400006E0CB6803F1040902E0CB6803F10C0975
:1003500013460546B8F5807F24BF203B04352E6840
:100360000F279F40BE4309FA03F333432B60CB7939
:10037000DB067FF585AF41F21804C4F2020423685E
:100380004FEA9A0643F001032360236840F6000415
:1003900003F001030193019BACF57E7353F826B083
:1003A000C4F20104A0420FD040F60044C4F201049C
:1003B000A0423FF42EAF41F20004C4F20104009DBC
:1003C000A04208BF022525E7002523E702B0BDE8CB
:1003D000F08F0000002A08BF090401617047000087
:1003E00041F64000C2F200000068704741F25C3004
:1003F00041F64001C2F20000C2F2000100780A6832
:10040000104408607047000080B542F20000C4F25A
:100410000200016841F010010160032000F07EF845
:10042000002000F005F800F02BF8002080BD00004F
:10043000B0B541F25C32C2F2000241F2583112789A
:10044000C2F200014FF47A730968B3FBF2F204467A
:10045000B1FBF2F1084600F03DFC0F2C4FF0010516
:100460000CD858B94FF0FF3021460022002500F08B
:1004700029F841F26030C2F2000004602846B0BDA5
:1004800082B041F21800C4F202000168012241F07A
:1004900001010160016801F00101019101994168C8
:1004A00041F080514160406800F080500090009819
:1004B0000420C4F20100016862F31A61016002B015
:1004C0007047000010B54EF60C5CCEF2000CDCF864
:1004D0000030C3F3022E8EF00704042C28BF04243E
:1004E000BEF103034FF0FF3E0EFA04F438BF0023C1
:1004F000A14399400EFA03F39A4300F00F03043B23
:100500001143634409010C3300F16042B0F1FF3F35
:10051000C8BF02F56443197010BD00004EF60C51BF
:10052000CEF200010A684FF6FF031A4060F30A2278
:1005300042F0806040F0FD70086070472DE9F043A4
:1005400081B0002800F0858042F20008C4F2020861
:100550000446D8F800000D4600F0070088420CD28F
:10056000D8F8000020F007002843C8F80000D8F8A9
:10057000000000F00700A8426BD1206841F2040996
:100580008107C4F2020917D5410705D5D9F8001033
:1005900041F4E061C9F80010010705D5D9F8001051
:1005A00041F46051C9F80010D9F80010A26821F098
:1005B000F0011143C9F80010C00741D1D8F800007C
:1005C00000F00700A8420CD9D8F8000020F007007E
:1005D0002843C8F80000D8F8000000F00700A8423F
:1005E00037D12068410707D5D9F80010E26821F417
:1005F000E0611143C9F80010000708D5D9F80000E0
:10060000216920F4605040EAC100C9F80000D9F81F
:10061000002002F00C00082841F20020C0F27A000D
:100620004ED143F62813C2F38341C0F60003595C50
:10063000D20339D440F60010C0F23D0048433FE0F9
:100640006068022809D0012829D159F8041C8903BF
:1006500007D4012001B0BDE8F08359F8041C8901DA
:10066000F7D5D9F8001021F003010843C9F80000BC
:10067000FFF7B6FE064641F2883700BFD9F8000002
:10068000616800F00C00B0EB810F97D0FFF7A8FE77
:10069000801BB842F2D9032001B0BDE8F08359F8BD
:1006A000041C8907D5D5DCE7D9F8002042F256139F
:1006B000C2F34042C0F600039A5C4843B0FBF2F03C
:1006C000D9F8001042F25812C1F30311C0F600022B
:1006D000515C41F2583220FA01F141F26030C2F22D
:1006E00000000068C2F200021160FFF7A1FE0020C6
:1006F00001B0BDE8F08300002DE9F04182B0002890
:1007000000F0D7800446007841F20006C007C4F22A
:10071000020644D0706800F00C00042817D07068FE
:1007200000F00C00082802D17068C0030FD465687F
:100730002DB1B5F5A02F10D0B5F5803F11D03068A0
:1007400020F480303060306820F480200CE0306885
:10075000800324D5606810BBABE0306840F4802093
:100760003060306840F480303060FFF739FE002D93
:10077000054611D03068800311D4FFF731FE401BCD
:100780006428F7D916E100BFFFF72AFE401B642852
:100790004FF0030000F28A8030688003F4D42078A0
:1007A000800718D5706810F00C0F07D0706800F043
:1007B0000C00082827D17068C00324D43068800753
:1007C00002D52069012874D13068616920F0F800F1
:1007D00040EAC1003060207800074FD5A06940B3DF
:1007E0000020C4F242200121C0F88014FFF7F8FD78
:1007F000054600BF706A80072DD4FFF7F1FD401B4E
:100800000228F7D9D6E02069002840F20000C4F29F
:10081000422000F0A68001210160FFF7E1FD0546BE
:1008200030688007D0D4FFF7DBFD401B0228F7D9E2
:10083000C0E00020C4F242200021C0F88014FFF77D
:10084000CFFD0546706A800718D5FFF7C9FD401B2C
:100850000228F7D9AEE041F25830C2F20000006839
:1008600044F6D351C1F26201A0FB0101480A019094
:1008700000BF0198411E00280191F9D1207840075E
:100880001BD4E5698DB1706800F00C00082846D1D2
:10089000012D0ED07068216A00F480328A4208D19E
:1008A000616A00F47010884203D1002002B0BDE8F4
:1008B000F081012002B0BDE8F081F06910F08058AD
:1008C00008D1F06940F08050F061F06900F080508C
:1008D0000090009847F20007C4F200073868C0058E
:1008E0000FD4386840F480703860FFF779FD054612
:1008F0003868C00505D4FFF773FD401B6428F7D99D
:1009000058E0E5681DB1052D3CD0012D3ED0306A80
:1009100020F001003062306A20F0040039E0002746
:10092000C4F2422700203866FFF75AFD022D054623
:100930000CD100BF3068800154D5FFF751FD401B3A
:1009400002284FF00300F5D9B0E700BF30688001FE
:10095000ABD5FFF745FD401B02284FF00300F5D94A
:10096000A4E700210160FFF73BFD054630688007E2
:100970007FF531AFFFF734FD401B02284FF0030035
:10098000F4D993E7306A40F004003062306A40F0F6
:1009900001003062FFF724FD002D054641F2883743
:1009A00014D000BF306A800713D4FFF719FD401B35
:1009B000B842F7D9032002B0BDE8F081FFF710FD7F
:1009C000401BB8424FF003003FF670AF306A80071B
:1009D000F4D4B8F1000F7FF454AFF06920F08050E8
:1009E000F0614EE7206AB0F5803F05D17168A268DA
:1009F00021F40031114371607168626A21F474114D
:100A000010430843706001203866FFF7E9FC044694
:100A1000306880013FF549AFFFF7E2FC001B022878
:100A20004FF00300F4D941E770B538B10446406A8D
:100A300030B10020206104F1140007E0012070BDF6
:100A40006068B0F5827F03D004F11C0000210160D2
:100A50000026A66294F8510020B9204684F8506020
:100A600000F038F8022084F8510094E8071001F4EF
:100A70008271036802F4044223F040030360236997
:100A800011440CF40062114403F002026369114442
:100A900003F00102A369E569114403F400721144F3
:100AA00005F03802256A114405F08002A56A114359
:100AB00005F4005211430160042101EA1341416031
:100AC000C16921F40061C1610120666584F85100AB
:100AD000304670BD70B586B040F60044C4F20104E3
:100AE0000068A4F5544100268842049602D006B05E
:100AF00070BD00BF41F21800C4F20200416802ADAF
:100B000041F480414160416801F4804101910199C3
:100B1000016841F0080101600068294600F0080002
:100B2000019001984FF4204002900220039003208E
:100B300005902046FFF74EFB4FF48040CDE90206BA
:100B4000204629460496FFF745FB06B070BD00001D
:100B50002DE9F04381B0044690F85000012803D1FC
:100B6000022001B0BDE8F0834FF001091D46164692
:100B70000F4684F85090FFF733FC94F85110012988
:100B80005DD18046002F4FF0010018BF002E00F00D
:100B90009980032084F85100002060652763A686B1
:100BA000E686A063A087E087A168C4E91000B1F5DC
:100BB000004F08D12068016821F040010160016800
:100BC00041F48041016020680168490603D401684E
:100BD00041F0400101606168731EE268B1FA81F181
:100BE000B3FA83F349095B09B2F5006F41EA0301E7
:100BF00027D139B1216B31F8022BC2602163E08E1D
:100C00000138E086E08E002841D06E1C0AE000BF6B
:100C1000216B31F8022BC2602163E08E0138E0863F
:100C2000E08EA0B3206881688907F1D4FFF7D8FB74
:100C3000002EF5D0A0EB0800A842F1D325E0022059
:100C400040E039B139780173206B01302063E08EC8
:100C50000138E086E08ED0B16E1C0AE0216B097885
:100C60000173206B01302063E08E0138E086E08E56
:100C700068B1206881688907F0D4FFF7B1FB002EC6
:100C8000F5D0A0EB0800A842F1D303201AE02046DB
:100C900080212A46434601F073F928B1606D40F087
:100CA0002000606520206065A06838B900200090B1
:100CB0002068C1680091806800900098606D0028ED
:100CC00018BF0120002184F8519084F8501001B021
:100CD000BDE8F083411E0020B0EB116F1CBF012066
:100CE00070474EF21002CEF2000251604EF62351D0
:100CF000CEF20001F0230B70072190601160704765
:100D0000FEE700002DE9F04784B041F21800C4F27C
:100D10000200016840F6000441F020010160016812
:100D2000C4F2010401F02001009100990168002241
:100D300041F0040101600168102601F004010091F6
:100D4000009901684FF0000941F008010160006856
:100D5000102100F00800009000982046FFF73AFBB1
:100D600004F58065284641F20201002241F20208A2
:100D7000FFF730FB00966E464FF0010A022720462F
:100D80003146CDE901A90397FFF724FA28463146F9
:100D9000CDE9008ACDE90297FFF71CFA04B0BDE85F
:100DA000F087000080B541F2E87043F60001C2F21E
:100DB0000000C4F200014FF48272002380E80E00AC
:100DC00000F114014FF4007C4FF0080E81E8085048
:100DD0000A21C0E90333C0E90833C0E90A31FFF74B
:100DE00023FE002808BF80BDBDE88040FFF7DCB9C6
:100DF000FEE70000704700002DE9F04782B040F6A2
:100E00000044C4F20104A4F58065284610210022A4
:100E100010270026FFF7DEFAC8204FF0C809FFF7B9
:100E2000C5F9284610210122FFF7D4FAAE208DF82B
:100E300007002046022100224FF00208FFF7CAFAFD
:100E400020464FF480510022FFF7C4FA41F2E875C2
:100E5000C2F200050DF1070128460122C823FFF761
:100E600077FE20464FF480510122FFF7B3FA204667
:100E700002210122FFF7AEFA2046022100228DF85E
:100E80000760FFF7A7FA20464FF480510022FFF7D2
:100E9000A1FA0DF1070128460122C823FFF758FEE9
:100EA00020464FF480510122FFF794FA2046022198
:100EB0000122FFF78FFA2046022100228DF80770E9
:100EC000FFF788FA20464FF480510022FFF782FA9C
:100ED0000DF1070128460122C823FFF739FE2046FD
:100EE0004FF480510122FFF775FA204602210122BA
:100EF000FFF770FA4FF0400A2046022100228DF8D9
:100F000007A0FFF767FA20464FF480510022FFF751
:100F100061FA0DF1070128460122C823FFF718FEE8
:100F200020464FF480510122FFF754FA2046022157
:100F30000122FFF74FFA81208DF807002046022199
:100F40000022FFF747FA20464FF480510022FFF7B6
:100F500041FA0DF1070128460122C823FFF7F8FDE9
:100F600020464FF480510122FFF734FA2046022137
:100F70000122FFF72FFACF208DF80700204602212B
:100F80000022FFF727FA20464FF480510022FFF796
:100F900021FA0DF1070128460122C823FFF7D8FDE9
:100FA00020464FF480510122FFF714FA2046022117
:100FB0000122FFF70FFAA1208DF807002046022139
:100FC0000022FFF707FA20464FF480510022FFF776
:100FD00001FA0DF1070128460122C823FFF7B8FDE9
:100FE00020464FF480510122FFF7F4F920460221F8
:100FF0000122FFF7EFF92046022100228DF8079029
:10100000FFF7E8F920464FF480510022FFF7E2F99C
:101010000DF1070128460122C823FFF799FD20465C
:101020004FF480510122FFF7D5F920460221012219
:10103000FFF7D0F94FF0A6092046022100228DF8D3
:101040000790FFF7C7F920464FF480510022FFF7C1
:10105000C1F90DF1070128460122C823FFF778FDE9
:1010600020464FF480510122FFF7B4F920460221B7
:101070000122FFF7AFF9A8208DF8070020460221D2
:101080000022FFF7A7F920464FF480510022FFF716
:10109000A1F90DF1070128460122C823FFF758FDE9
:1010A00020464FF480510122FFF794F92046022197
:1010B0000122FFF78FF93F208DF80700204602211B
:1010C0000022FFF787F920464FF480510022FFF7F6
:1010D00081F90DF1070128460122C823FFF738FDE9
:1010E00020464FF480510122FFF774F92046022177
:1010F0000122FFF76FF9D3208DF807002046022167
:101100000022FFF767F920464FF480510022FFF7D5
:1011100061F90DF1070128460122C823FFF718FDE8
:1011200020464FF480510122FFF754F92046022156
:101130000122FFF74FF92046022100228DF80760B7
:10114000FFF748F920464FF480510022FFF742F99B
:101150000DF1070128460122C823FFF7F9FC2046BC
:101160004FF480510122FFF735F920460221012278
:10117000FFF730F9D5208DF8070020460221002224
:10118000FFF728F920464FF480510022FFF722F99B
:101190000DF1070128460122C823FFF7D9FC20469C
:1011A0004FF480510122FFF715F920460221012258
:1011B000FFF710F980208DF8070020460221002259
:1011C000FFF708F920464FF480510022FFF702F99B
:1011D0000DF1070128460122C823FFF7B9FC20467C
:1011E0004FF480510122FFF7F5F820460221012239
:1011F000FFF7F0F8D9208DF80700204602210022E1
:10120000FFF7E8F820464FF480510022FFF7E2F89C
:101210000DF1070128460122C823FFF799FC20465B
:101220004FF480510122FFF7D5F820460221012218
:10123000FFF7D0F8F1208DF80700204602210022A8
:10124000FFF7C8F820464FF480510022FFF7C2F89C
:101250000DF1070128460122C823FFF779FC20463B
:101260004FF480510122FFF7B5F8204602210122F8
:10127000FFF7B0F8DA208DF807002046022100229F
:10128000FFF7A8F820464FF480510022FFF7A2F89C
:101290000DF1070128460122C823FFF759FC20461B
:1012A0004FF480510122FFF795F8204602210122D8
:1012B000FFF790F812208DF8070020460221002247
:1012C000FFF788F820464FF480510022FFF782F89C
:1012D0000DF1070128460122C823FFF739FC2046FB
:1012E0004FF480510122FFF775F8204602210122B8
:1012F000FFF770F8DB208DF807002046022100225E
:10130000FFF768F820464FF480510022FFF762F89B
:101310000DF1070128460122C823FFF719FC2046DA
:101320004FF480510122FFF755F820460221012297
:10133000FFF750F82046022100228DF807A0FFF7A2
:1013400049F820464FF480510022FFF743F80DF191
:10135000070128460122C823FFF7FAFB20464FF475
:1013600080510122FFF736F8204602210122FFF7C3
:1013700031F820208DF80700204602210022FFF7D7
:1013800029F820464FF480510022FFF723F80DF191
:10139000070128460122C823FFF7DAFB20464FF455
:1013A00080510122FFF716F8204602210122FFF7A3
:1013B00011F82046022100228DF80780FFF70AF875
:1013C00020464FF480510022FFF704F80DF1070189
:1013D00028460122C823FFF7BBFB20464FF480516B
:1013E0000122FEF7F7FF204602210122FEF7F2FF5D
:1013F0008D208DF80700204602210022FEF7EAFF2B
:1014000020464FF480510022FEF7E4FF0DF1070162
:1014100028460122C823FFF79BFB20464FF480514A
:101420000122FEF7D7FF204602210122FEF7D2FF5C
:1014300014208DF80700204602210022FEF7CAFF83
:1014400020464FF480510022FEF7C4FF0DF1070142
:1014500028460122C823FFF77BFB20464FF480512A
:101460000122FEF7B7FF204602210122FEF7B2FF5C
:10147000A4208DF80700204602210022FEF7AAFFD3
:1014800020464FF480510022FEF7A4FF0DF1070122
:1014900028460122C823FFF75BFB20464FF480510A
:1014A0000122FEF797FF204602210122FEF792FF5C
:1014B0002046022100228DF80790FEF78BFF204680
:1014C0004FF480510022FEF785FF0DF107012846F9
:1014D0000122C823FFF73CFB20464FF48051012234
:1014E000FEF778FF204602210122FEF773FFAF20AE
:1014F0008DF80700204602210022FEF76BFF2046F0
:101500004FF480510022FEF765FF0DF107012846D8
:101510000122C823FFF71CFB20464FF48051012213
:10152000FEF758FF204602210122FEF753FF41F249
:101530006830C2F2000000214218465401F5807163
:10154000B1F5806F16721674167682F8206082F8F4
:10155000286082F8306082F8386082F8406082F853
:10156000486082F8506082F8586082F8606082F8C3
:10157000686082F8706082F8786082F8806082F833
:10158000886082F8906082F8986082F8A06082F8A3
:10159000A86082F8B06082F8B86082F8C06082F813
:1015A000C86082F8D06082F8D86082F8E06082F883
:1015B000E86082F8F06082F8F860BDD10021002276
:1015C000831802F58072B2F5806F597059725974A0
:1015D000597683F8211083F8291083F8311083F8A5
:1015E000391083F8411083F8491083F8511083F8BB
:1015F000591083F8611083F8691083F8711083F82B
:10160000791083F8811083F8891083F8911083F89A
:10161000991083F8A11083F8A91083F8B11083F80A
:10162000B91083F8C11083F8C91083F8D11083F87A
:10163000D91083F8E11083F8E91083F8F11083F8EA
:10164000F910BDD100210022831802F58072B2F595
:10165000806F997099729974997683F8221083F843
:101660002A1083F8321083F83A1083F8421083F876
:101670004A1083F8521083F85A1083F8621083F8E6
:101680006A1083F8721083F87A1083F8821083F856
:101690008A1083F8921083F89A1083F8A21083F8C6
:1016A000AA1083F8B21083F8BA1083F8C21083F836
:1016B000CA1083F8D21083F8DA1083F8E21083F8A6
:1016C000EA1083F8F21083F8FA10BDD1002100224D
:1016D000831802F58072B2F5806FD970D972D9740F
:1016E000D97683F8231083F82B1083F8331083F80E
:1016F0003B1083F8431083F84B1083F8531083F8A2
:101700005B1083F8631083F86B1083F8731083F811
:101710007B1083F8831083F88B1083F8931083F881
:101720009B1083F8A31083F8AB1083F8B31083F8F1
:10173000BB1083F8C31083F8CB1083F8D31083F861
:10174000DB1083F8E31083F8EB1083F8F31083F8D1
:10175000FB10BDD100210022831802F58072B2F582
:10176000806F197119731975197783F8241083F82C
:101770002C1083F8341083F83C1083F8441083F85D
:101780004C1083F8541083F85C1083F8641083F8CD
:101790006C1083F8741083F87C1083F8841083F83D
:1017A0008C1083F8941083F89C1083F8A41083F8AD
:1017B000AC1083F8B41083F8BC1083F8C41083F81D
:1017C000CC1083F8D41083F8DC1083F8E41083F88D
:1017D000EC1083F8F41083F8FC10BDD10021002236
:1017E000831802F58072B2F5806F5971597359757B
:1017F000597783F8251083F82D1083F8351083F876
:101800003D1083F8451083F84D1083F8551083F888
:101810005D1083F8651083F86D1083F8751083F8F8
:101820007D1083F8851083F88D1083F8951083F868
:101830009D1083F8A51083F8AD1083F8B51083F8D8
:10184000BD1083F8C51083F8CD1083F8D51083F848
:10185000DD1083F8E51083F8ED1083F8F51083F8B8
:10186000FD10BDD100210022831802F58072B2F56F
:10187000806F997199739975997783F8261083F819
:101880002E1083F8361083F83E1083F8461083F844
:101890004E1083F8561083F85E1083F8661083F8B4
:1018A0006E1083F8761083F87E1083F8861083F824
:1018B0008E1083F8961083F89E1083F8A61083F894
:1018C000AE1083F8B61083F8BE1083F8C61083F804
:1018D000CE1083F8D61083F8DE1083F8E61083F874
:1018E000EE1083F8F61083F8FE10BDD1002100221F
:1018F000831802F58072B2F5806FD971D973D975EA
:10190000D97783F8271083F82F1083F8371083F8DE
:101910003F1083F8471083F84F1083F8571083F86F
:101920005F1083F8671083F86F1083F8771083F8DF
:101930007F1083F8871083F88F1083F8971083F84F
:101940009F1083F8A71083F8AF1083F8B71083F8BF
:10195000BF1083F8C71083F8CF1083F8D71083F82F
:10196000DF1083F8E71083F8EF1083F8F71083F89F
:10197000FF10BDD100F004F802B0BDE8F087000010
:101980002DE9F04F81B040F6004441F2683641F253
:10199000E875C4F20104C2F20006C2F200050DF1BE
:1019A00001090DF1020B0DF103074FF0000800BF14
:1019B000A8F150008DF80000204602210022FEF719
:1019C00009FD20464FF480510022FEF703FD284612
:1019D00069460122C823FFF7BBF820464FF4805127
:1019E0000122FEF7F7FC204602210122FEF7F2FC5D
:1019F00000208DF80100204602210022FEF7EAFCBB
:101A000020464FF480510022FEF7E4FC2846494668
:101A10000122C823FFF79CF820464FF48051012291
:101A2000FEF7D8FC204602210122FEF7D3FC10204D
:101A30008DF80200204602210022FEF7CBFC204652
:101A40004FF480510022FEF7C5FC2846594601227A
:101A5000C823FFF77DF820464FF480510122FEF79E
:101A6000B9FC204602210122FEF7B4FC6FF0070A00
:101A700006EB0A00007A02218DF8030020460122BD
:101A8000FEF7A8FC20464FF480510022FEF7A2FC8E
:101A9000284639460122C823FFF75AF820464FF45A
:101AA00080510122FEF796FC204602210122FEF71A
:101AB00091FC0AF1080ABAF57E7FD9D108F1010834
:101AC000B8F1080F06F101067FF472AF01B0BDE86E
:101AD000F08F00002DE9F04F85B00491D90801275F
:101AE0005E0718BF07EBD3015F0801FB07F421066F
:101AF000039300F011810399182900F20D810399D5
:101B0000012541F2000705FA01F1C0F2011739423F
:101B100000F00281A2F12001CAB242F2681702EB82
:101B20004201C0F6000707EB810B42F2DC51C0F620
:101B30000001049B5FFA84FC4FF0000801EB0211E6
:101B4000019200910399102904D00C2904D15E461A
:101B50000DE000BF009908E0019942F6CC3201EB9C
:101B6000C101C0F6000202EB810101EB0806029000
:101B7000C1B241F26830DFB2C2F20000FA0800EBF5
:101B8000C10703F00704B95C96F9006005FA04F494
:101B900041EA040AB6F1FF3FC8BF21EA040A03F193
:101BA000010904985FFA89FEAEEB00010398012554
:101BB000814207F802A000F09F804FEADE045FFA3E
:101BC00086FA09F007013E5D05FA01F146EA0102D5
:101BD000DDF810E05FEA4A6558BF26EA01029E1C64
:101BE000F1B2A1EB0E0585424FF001053A5500F028
:101BF0008380CA0806F00701BE5C05FA01F146EAD7
:101C000001055FEA8A6458BF26EA0105DE1CF1B2CD
:101C1000A1EB0E0484424FF00104BD546CD0CA08FD
:101C200006F00701BE5C04FA01F146EA01055FEA2D
:101C3000CA6458BF26EA01051E1DF1B2A1EB0E04CD
:101C400084424FF00104BD5456D0CA0806F0070183
:101C5000BE5C04FA01F146EA01055FEA0A7458BF66
:101C600026EA01055E1DF1B2A1EB0E0484424FF09D
:101C70000104BD5440D0CA0806F00701BE5C04FA56
:101C800001F146EA01055FEA4A7458BF26EA0105F8
:101C90009E1DF1B2A1EB0E0484424FF00104BD542D
:101CA0002AD0CA0806F00701BE5C04FA01F146EA30
:101CB00001055FEA8A7458BF26EA0105DE1DF1B20C
:101CC000A1EB0E0484424FF00104BD5414D0C908A6
:101CD00006F007027E5C04FA02F246EA02050833C7
:101CE0005FEACA7408BF26EA0205DAB2A2EB0E0266
:101CF00082427D540ED100BF0298049B013008F14E
:101D00000108BCF1010C0BF1010B4FF001057FF450
:101D100019AF01E00298F2E705B0BDE8F08F0000CE
:101D20002DE9F04F89B0DF080793069000F0F880A6
:101D300007981038C3B2400140EAD300C6B2062E5D
:101D400000F2EE800120B04010F0470F00F0E88074
:101D5000079800255043C0080090024606984FF0AF
:101D6000010E05960BE000BF039F029D013F3A065E
:101D7000019A05F1010502F1010200F0D180019202
:101D8000D3B240F25832C2F2000202EB4329009A69
:101D90004FF0000BAB18DAB20492079A0397029542
:101DA000A5E000BF049A02EBC20540F28002C2F235
:101DB000000202EBC5055D4441F2683395F900C0AD
:101DC000C5B2CAB2C2F20003D20803EBC50501F0E6
:101DD0000706AF5C0EFA06F647EA060A5FEACC7819
:101DE00008BF27EA060A05F802A04A1CD6B2F60880
:101DF00002F00702AF5D0EFA02F247EA02045FEA60
:101E00008C7358BF27EA02048A1CD3B2AC55DB0896
:101E100002F00702EC5C0EFA02F244EA02065FEA04
:101E20004C7758BF24EA0206CA1CEE54D3B2DB0832
:101E300002F00702EC5C0EFA02F244EA02065FEAE4
:101E40000C7758BF24EA02060A1DEE54D3B2DB0811
:101E500002F00702EC5C0EFA02F244EA02065FEAC4
:101E6000CC6758BF24EA02064A1DEE54D3B2DB0801
:101E700002F00702EC5C0EFA02F244EA02065FEAA4
:101E80008C6758BF24EA02068A1DEE54D3B2DB08E1
:101E900002F00702EC5C0EFA02F244EA02065FEA84
:101EA0004C6758BF24EA0206CA1DEE54D3B2DB08C1
:101EB00002F00702EC5C0EFA02F244EA0207BCF1FF
:101EC000FF3FC8BF24EA0207EF540130069FC2B2A9
:101ED000079BD21B9A4204BF38460831089A059ED8
:101EE0000BF1010B013A09F101093FF43DAF0892F2
:101EF00066B1012E3FF456AF022E0FD140F25812B8
:101F0000049BC2F2000202EBC31554E740F2000248
:101F1000049BC2F2000202EB03154CE74D464BE76F
:101F200009B0BDE8F08F00002DE9F04381B01C46F8
:101F300013780D46A3F12001C9B25E291BD80646CD
:101F40004FEA5408C4F18009571E00BFF0B2E9B24D
:101F5000DAB22346FFF7BEFD4644F0B28145B8BF72
:101F60002544BB78B8BF0226A3F12000C0B25F2889
:101F700007F10107EAD301B0BDE8F0837047000024
:101F80002DE9F04381B01E4690460D468146FEF78E
:101F900027FA301A00EB0807FEF722FA41F258310F
:101FA000C2F200010968C1F3CB3179430091D9F83D
:101FB000001089682940A94219D1064608F1010498
:101FC00006E000BFD9F8000080682840A8420ED182
:101FD000002CF7D0FEF704FA801BB8420BD2009811
:101FE0000099002808BF0746481E0090EAE7002035
:101FF00001B0BDE8F083D9E900014268B1F5827F04
:1020000022F0E00242600BD1D9F80810B1F5004F80
:1020100002D0B1F5806F03D1016821F04001016069
:10202000D9F82810B1F5005F07D1016821F40051FB
:102030000160016841F400510160012089F85100FC
:10204000002089F85000032001B0BDE8F0830000B3
:1020500070470000FEF7CAB970470000FEE70000B5
:1020600090B0FEF7D1F900240120CDE90B44CDE971
:10207000094406900A904FF4E0104FF48031022595
:102080000F9006A8CDE90714CDE90D51FEF734FBFA
:102090000F20CDE901054FF48060CDE9040401A8CB
:1020A00002210394FEF74AFAFEF72CFEFEF77AFEB1
:1020B000FEF7A2FEFFF764FC1AA41CA50020002175
:1020C00022461023FFF730FF202000210222102398
:1020D000FFF726FE3020002103221023FFF720FE09
:1020E0003E2000213A221023FFF7F4FC4A20002171
:1020F00051221023FFF7EEFC56200021002210236E
:10210000FFF70EFE6620002101221023FFF708FED4
:102110002D2028212A461023FFF706FFFFF730FC69
:10212000CCE700BF4353444E00000000323032324F
:102130002E332E313900000002E008C8121F08C1FA
:10214000002AFAD170477047002001E001C1121F38
:10215000002AFBD1704701020000000000000000CF
:102160000102030406070809000000000000000047
:1021700000000000000000003F40000000000000E0
:1021800000003000400030004000000009000BC09B
:102190003D000BC03D00090018C024407FE02240F4
:1021A00031800000180024C01B000D8032400180E7
:1021B00003801C4027401C80074000401000600046
:1021C00000000000000000000000000000001F8070
:1021D000204040200000402020401F8000000000E0
:1021E000090006001F80060009000000040004002A
:1021F0003F800400040000000010006000000000A8
:1022000000000000040004000400040004000000BA
:10221000000000400000000000000000002001C09D
:1022200006003800400000001F8020402040204071
:102230001F800000000010403FC000400000000070
:1022400018C0214022402440184000001080204047
:10225000244024401B80000002000D0011003FC0FC
:10226000014000003C8024402440244023800000A2
:102270001F802440244034400380000030002000B0
:1022800027C03800200000001B8024402440244048
:102290001B8000001C0022C0224022401F80000042
:1022A00000000000084000000000000000000000E6
:1022B0000460000000000000000004000A0011009B
:1022C00020804040090009000900090009000000C1
:1022D00000004040208011000A0004001800200087
:1022E00023402400180000001F8020402740294080
:1022F0001F400000004007C039000F0001C000402F
:1023000020403FC0244024401B8000001F8020400C
:10231000204020403080000020403FC0204020402E
:102320001F80000020403FC024402E4030C00000ED
:1023300020403FC024402E00300000000F001080DD
:10234000204022403380020020403FC004000400AF
:102350003FC02040204020403FC02040204000009F
:102360000060202020203FC02000200020403FC0EF
:1023700024400B0030C0204020403FC0204000409F
:10238000004000C03FC03C0003C03C003FC0000014
:1023900020403FC00C4023003FC020001F80204051
:1023A000204020401F80000020403FC024402400E7
:1023B000180000001F802140214020E01FA00000E5
:1023C00020403FC02440260019C0004018C02440CF
:1023D0002440224031800000300020403FC0204097
:1023E0003000000020003F80004000403F8020007F
:1023F00020003E0001C0070038002000380007C060
:102400003C0007C038000000204039C0060039C039
:10241000204000002000384007C038402000000065
:10242000304021C02640384020C00000000000009D
:102430007FE0402040200000000070000C0003807E
:10244000004000000000402040207FE0000000002D
:1024500000002000400020000000000000100010DC
:1024600000100010001000100000000040000000EC
:1024700000000000000002800540054003C000404D
:1024800020003FC00440044003800000000003809F
:102490000440044006400000000003800440244043
:1024A0003FC000400000038005400540034000009D
:1024B000000004401FC0244024402000000002E02F
:1024C000055005500650042020403FC00440040041
:1024D00003C000400000044027C00040000000008E
:1024E00000100010041027E00000000020403FC052
:1024F0000140070004C00440204020403FC000408D
:102500000040000007C0040007C0040003C0000032
:10251000044007C00440040003C0004000000380E2
:102520000440044003800000041007F004500440FD
:1025300003800000000003800440045007F00010F6
:10254000044007C0024004000400000000000640F0
:102550000540054004C00000000004001F80044046
:1025600000400000040007800040044007C0004015
:102570000400070004C0018006000400060001C03A
:10258000070001C006000000044006C0010006C0AC
:10259000044000000410071004E00180060004005D
:1025A0000000044005C00640044000000000000098
:1025B00004007BE040200000000000000000FFF06D
:1025C00000000000000040207BE00400000000004C
:1025D000400080004000200020004000000000007B
:1025E00000000000000000000000000000000000EB
:1025F00000001FCC000C00000000000000000800DC
:10260000300060000800300060000000022003FC81
:102610001E20022003FC1E200220000000000E18D5
:1026200011043FFF10840C78000000000F0010849C
:102630000F3800C0077818840078000000780F84F5
:1026400010C411240E9800E40084000808006800FB
:10265000700000000000000000000000000000000A
:10266000000007E0181820044002000000004002AB
:102670002004181807E0000000000000024002409B
:1026800001800FF0018002400240000000800080C5
:1026900000800FF800800080008000000001000D25
:1026A000000E00000000000000000000000000809C
:1026B0000080008000800080008000800000000C0E
:1026C000000C0000000000000000000000000006F8
:1026D000001800600180060018002000000007F0CC
:1026E000080810041004080807F00000000008049F
:1026F00008041FFC000400040000000000000E0C91
:1027000010141024104411840E0C000000000C184A
:1027100010041104110412880C700000000000E085
:102720000320042408241FFC0024000000001F983C
:10273000108411041104108810700000000007F0CC
:1027400008881104110418880070000000001C00A3
:10275000100010FC13001C001000000000000E38D8
:1027600011441084108411440E380000000007004A
:10277000088C10441044088807F000000000000096
:102780000000030C030C000000000000000000002B
:1027900000010106000000000000000000000080B1
:1027A000014002200410080810040000022002204A
:1027B000022002200220022002200000000010045B
:1027C00008080410022001400080000000000E00F4
:1027D0001200100C106C10800F00000003E00C18A9
:1027E00013E4142417C4082807D000000004003C98
:1027F00003C41C40074000E4001C000410041FFC3C
:102800001104110411040E880070000003E00C187C
:1028100010041004100410081C10000010041FFC09
:10282000100410041004080807F0000010041FFC36
:102830001104110417C410040818000010041FFC30
:102840001104110017C010000800000003E00C186C
:102850001004100410441C780040000010041FFCF9
:1028600010840080008010841FFC100400001004FD
:1028700010041FFC100410040000000000030001FD
:10288000100110011FFE10001000000010041FFCBA
:10289000110403801464181C1004000010041FFCB1
:1028A0001004000400040004000C000010041FFCCD
:1028B0001F0000FC1F001FFC1004000010041FFC80
:1028C0000C04030000E010181FFC100007F00808BB
:1028D000100410041004080807F0000010041FFC86
:1028E00010841080108010800F00000007F008187E
:1028F00010241024101C080A07F2000010041FFC0A
:102900001104110011C011300E0C000400000E1C47
:1029100011041084108410441C38000018001000AA
:1029200010041FFC100410001800000010001FF815
:1029300010040004000410041FF8100010001E0012
:1029400011E0001C007013801C0010001FC0103C20
:1029500000E01F0000E0103C1FC000001004180C35
:10296000163401C001C01634180C100410001C00ED
:10297000130400FC13041C00100000000804101CC9
:102980001064108413041C041018000000000000E0
:1029900000007FFE400240024002000000003000C4
:1029A0000C0003800060001C0003000000004002D7
:1029B000400240027FFE0000000000000000000016
:1029C0002000400040004000200000000001000105
:1029D00000010001000100010001000100004000B1
:1029E00040002000000000000000000000000098EF
:1029F000012401440144014400FC000410001FFCB8
:102A000000880104010400880070000000000070CC
:102A10000088010401040104008800000000007027
:102A200000880104010411081FFC0004000000F8E4
:102A3000014401440144014400C8000000000104B5
:102A400001040FFC1104110411001800000000D64D
:102A500001290129012901C90106000010041FFCF8
:102A6000008401000100010400FC000400000104D6
:102A7000190419FC00040004000000000000000319
:102A800000010101190119FE0000000010041FFCE3
:102A90000024004001B4010C0104000000001004F7
:102AA00010041FFC0004000400000000010401FCED
:102AB0000104010001FC0104010000FC010401FC0F
:102AC000008401000100010400FC0004000000F883
:102AD000010401040104010400F80000010101FFE8
:102AE00000850104010400880070000000000070EF
:102AF000008801040104010501FF00010104010433
:102B000001FC00840104010001800000000000CCF1
:102B10000124012401240124019800000000010087
:102B2000010007F80104010400000000010001F8A1
:102B3000000400040004010801FC000401000180FD
:102B40000170000C001001600180010001F0010C17
:102B5000003001C00030010C01F001000000010450
:102B6000018C00740170018C0104000001010181DD
:102B70000171000E00180160018001000000018455
:102B8000010C013401440184010C0000000000002C
:102B90000000000001003EFC400240020000000076
:102BA00000000000FFFF00000000000000004002E5
:102BB00040023EFC01000000000000000000600038
:102BC0008000800040004000200020000000000045
:102BD00000000000000000000000000000000000F5
:102BE00000000000000000000000000000000000E5
:102BF0000000000000000000000000000000000FC6
:102C000080380FFE380F8038000000000000000000
:102C100000000000000000000000010000060000AD
:102C20000C00003800003100000600000C000038E5
:102C3000000030000000000000000000618000671C
:102C4000F807F98000618000618000618000618088
:102C50000067F807F98000618000000000000000B4
:102C6000000001C0E003E0F00630080418081FFF70
:102C7000FE040E080787F00381E00000000000005A
:102C800001F000060C00040408060C7001F9C000F5
:102C90000E00003BE000EC18070808040C180003C5
:102CA000E00000000001E00007F003F818041C0831
:102CB00004170807E1D003C0E00023B0003C08007F
:102CC000200800001000000000000001000031009A
:102CD000003200001C0000000000000000000000A6
:102CE00000000000000000000000000000000000E4
:102CF0000000000000000000000000007F0001FF55
:102D0000C00780F00C001810000420000200000032
:102D10000000002000021000040C00180780F001E1
:102D2000FFC0007F00000000000000000000000065
:102D30000000000000000000420000660000660085
:102D4000003C0000180003FFC0001800003C000019
:102D50006600006600004200000000000800000855
:102D60000000080000080000080001FFC000080083
:102D70000008000008000008000008000000000033
:102D8000000100003100003200001C0000000000C3
:102D90000000000000000000000000000000000033
:102DA0000000000008000008000008000008000003
:102DB00008000008000008000008000008000008E3
:102DC0000000000000000000000000003800003893
:102DD00000003800000000000000000000000000BB
:102DE00000000000000000000000000000060000DD
:102DF0001C000070000180000E0000380000C000C0
:102E00000700001C0000300000000000000000006F
:102E10007F8001FFE00380700600180400080400B2
:102E20000806001803807001FFE0007F80000000AA
:102E30000000000000000100080100080100080374
:102E4000FFF807FFF8000008000008000008000075
:102E50000000000000000001C03802C058040098C3
:102E6000040118040218040418061C1803F81801B9
:102E7000E0F800000000000000000001C0E003C016
:102E8000F004000804080804080806180803F418E9
:102E900001E7F00001E00000000000000000000079
:102EA0000300000D00001100006100008108030113
:102EB0000807FFF80FFFF8000108000108000000F4
:102EC0000000000000E007FCD00608080610080615
:102ED0001008061008061838060FF00607C0000094
:102EE00000000000000000003F8001FFE00384308C
:102EF000020818041008041008041008071810032A
:102F00000FF00007C000000000000000000003C038
:102F1000000700000600000600F80607F806180083
:102F200006E00007000006000000000000000001AD
:102F3000E1E003F7F0063410041808041808040C44
:102F400008040C0806161803F3F001C1E0000000A5
:102F500000000000F80003FC3003063804020804F7
:102F600002080402080404100308F001FFC0007FF7
:102F70000000000000000000000000000000000051
:102F80000000000070380070380070380000000049
:102F90000000000000000000000000000000000031
:102FA0000000000000000000301A00301C0000008B
:102FB0000000000000000000000000000000000011
:102FC0000000000800001400002200004100008002
:102FD00080010040020020040010080008000000EA
:102FE000000000002100002100002100002100005D
:102FF000210000210000210000210000210000210B
:10300000000000000000000000000800080400109C
:1030100002002001004000808000410000220000EA
:10302000140000080000000000000003C00004C0FD
:1030300000040000080038080F380808380810009D
:103040000C300007E00003C000000000000000009A
:103050003F8000FFE0038070020F1006708804C0FC
:1030600088048308047F8802C09003012000FE408A
:103070000000080000180001F8003E0801C2000727
:10308000020007E20000FE00001FC80001F8000077
:103090003800000804000807FFF807FFF8040808D4
:1030A00004080804080804080806180803F41801AE
:1030B000E7F00001E0000000000000003F8001FF99
:1030C000E0038070020018040008040008040008EF
:1030D0000400100600200780C0000000040008075C
:1030E000FFF807FFF80400080400080400080400C3
:1030F0001802001003807001FFE0007F80000000D4
:1031000004000807FFF807FFF8040808040808048B
:103110000808040808043E08040008060018010016
:103120006000000004000807FFF807FFF804080823
:10313000040800040800040800043E00060000061D
:103140000000018000000000000000003F8001FF3F
:10315000E003807006001804000804020804020856
:103160000203F00783F000020000020004000807D9
:10317000FFF807FFF804080800080000080000082E
:103180000000080004080807FFF807FFF80400081B
:103190000000000000000400080400080400080704
:1031A000FFF807FFF8040008040008040008000006
:1031B0000000000000000000000600000700000101
:1031C00004000104000104000307FFFE07FFFC04E4
:1031D000000004000004000004000807FFF807FFD7
:1031E000F8040C08001800003E0004C7800503C85E
:1031F0000600F8040038040018000008040008075E
:10320000FFF807FFF80400080000080000080000AD
:10321000080000080000080000180000600000001E
:1032200004000807FFF807800807FC00007FC000C3
:1032300003F80007C000780007800807FFF807FFC1
:10324000F804000804000807FFF807000803C0009E
:1032500000E000003800001E000007000001C0046C
:1032600000F007FFF8040000000000007F8001FF6D
:10327000E003807006001804000804000806001827
:1032800003003001FFE0007F800000000400080719
:10329000FFF807FFF8040408040400040400040411
:1032A00000040400060C0003F80001F00000000018
:1032B000000000007F8001FFE003807006008804AA
:1032C00000880400C806003C03003E01FFE6007FC2
:1032D0008400000004000807FFF807FFF80408084E
:1032E000040800040C00040F00040BC00610F003D7
:1032F000F03801E00800000800000001E0F803F0E9
:1033000030063010041808041808040C08040C08CF
:103310000206180207F00781E000000001800006A5
:10332000000004000004000004000807FFF807FF85
:10333000F8040008040000040000060000018000FA
:1033400004000007FFE007FFF00400180000080079
:10335000000800000800000800000804001007FF33
:10336000E004000004000006000007E00007FE0083
:10337000041FE00001F80000380001E0043E0007EF
:10338000C00006000004000004000007E00007FF82
:10339000C0041FF80007C007F80007FF80043FF8CB
:1033A0000007C004F800070000040000000000044B
:1033B000000806001807C07805F1C8003E00001F8D
:1033C000800463E80780F806001804000800000085
:1033D00004000006000007800007E008047C0800E5
:1033E0001FF80007F800180804E0080700000600AE
:1033F000000400000000000100080600380400F886
:103400000403E8040F08047C0805F00807C0080757
:103410000018040060000000000000000000000030
:10342000000000000000003FFFFE2000022000021C
:103430002000022000022000020000000000000026
:10344000000008000007000000C00000380000066F
:10345000000001C000003000000E0000010000006C
:1034600000000000000020000220000220000220D6
:1034700000022000023FFFFE0000000000000000EC
:103480000000000000000000000000000008000034
:103490001000003000002000003000001000000884
:1034A000000000000000000000000100000100001A
:1034B0000100000100000100000100000100000106
:1034C00000000100000100000100000100000000F8
:1034D000000000000020000020000010000010008C
:1034E00000000000000000000000000000000000DC
:1034F0000000000000F00019F8001B18002208006E
:103500002608002408002410003FF8001FF80000DF
:103510000800001800000004000007FFF80FFFF08B
:1035200000181800100800200800200800301800BB
:103530001FF0000FC00000000000000007C0001FC7
:10354000F0001830002008002008002008003C0887
:10355000001C1000006000000000000000000000DF
:1035600007C0001FF00038180020080020080020C5
:103570000804101007FFF80FFFF000001000000013
:103580000000000000000007C0001FF00012300023
:103590002218002208002208003208001E10000E27
:1035A000200000000000000020000020080020088B
:1035B00001FFF803FFF8062008042008042008078C
:1035C000200003000000000000000000000E000EBC
:1035D0006E001FF30031B10020B10020B100319125
:1035E000001F13002E1E00200E00300000000004FB
:1035F000000807FFF80FFFF8001008002000002067
:1036000000002008003FF8001FF80000080000003C
:10361000000000000000002008002008002008062C
:103620003FF8063FF800000800000800000800000E
:103630000000000000000000000000000300000384
:10364000002001002001002003063FFE063FFC0091
:10365000000000000000000000000004000807FF58
:10366000F80FFFF8000188000300002FC00038F8B1
:1036700000203800200800000800000000000000C2
:10368000000004000804000804000807FFF80FFF0A
:10369000F80000080000080000080000000000001A
:1036A000002008003FF8003FF8001008002000004C
:1036B0003FF8003FF8001008002000003FF8003FEE
:1036C000F8000008000000002008003FF8003FF864
:1036D000001008001000002000002008003FF80043
:1036E0001FF80000080000000000000007C0000FE5
:1036F000F0001830003008002008002008003008D2
:10370000001830000FF00007C000000000000000AB
:103710002001003FFF003FFF0010110020090020A2
:1037200008002008003038001FF0000FC000000023
:103730000000000007C0001FF0003818002008003B
:103740002008002009001011001FFF003FFF0000AB
:1037500001000000002008002008002008003FF8B9
:10376000003FF800080800100800200800200000B2
:103770003000003000000000000000000000000CDD
:1037800078001E1800330800230800210800218853
:103790000021980030F000386000000000000000B8
:1037A000200000200000200000FFF003FFF80020B0
:1037B0000800200800200800003000000000000081
:1037C000000000002000003FF0007FF8000018001B
:1037D0000008000008002010003FF8007FF0000003
:1037E00010000000000000002000003000003C003D
:1037F000003F800023F0000078000070002380006C
:103800003C00003000002000002000003C00003F91
:10381000E00023F80000E0002700003E00003FE049
:103820000021F80001E0003E000020000000000040
:103830002008002008003838003E68002780000378
:10384000C8002CF8003838002018002008000000BC
:10385000000000002000003003003C01003F830016
:1038600023EC000070002380003C000020000020BA
:1038700000000000000000000000003808002038B0
:103880000020F80023E8002F88003E0800380800D8
:103890002018000070000000000000000000000080
:1038A000000000000000000008000014001FF7FCEA
:1038B00030000620000200000000000000000000B0
:1038C0000000000000000000000000000000FFFFFA
:1038D000FF000000000000000000000000000000E9
:1038E0000000000000002000023000061FF7FC006E
:1038F00014000008000000000000000000000000AC
:1039000000000000000000180000600000400000FF
:103910004000002000001000000800000400000427
:1039200000000C000010000002030405060708094F
:103930000A0B0C0D0E0F1010583900080000002063
:103940006813000048010008703A0008681300205E
:10395000E0080000482100084A20015AFF08111021
:103960000880804020100C032008030C10204080A9
:103970008022FC22FF3008F01010FF1010F0258785
:1039800040300F1A1F161B081009293B300C24F475
:10399000545454FF545556F40412FF200C080B19CC
:1039A00069090B49897D0B082A08013B09FA0719A7
:1039B0000F2C404041013A7F064340404BC08001FC
:1039C0004BFC84080336C0C03CFF7F40014AFF0720
:1039D000043E40FF7F034A7F700373FCF86CFFFED8
:1039E00002018BFFFF0B0268036C1F1F04017BFFAA
:1039F000FF0B02741F038C7F3F07FFF8F8F0F07095
:103A00002001E60214801AFF0109122C09132D016E
:103A1000FF01C0EDFFFFFE06011AFF01F91539167F
:103A200003FF070201D10C12FFFFFF140910150953
:103A3000151601FF01C1EDFFFFFF18011914091050
:103A400015391601FF01D204120201011AFF01010A
:103A50001209122A01FF01D71AFF0101FF01FD051A
:103A6000FF1F1F0F0F01E11324F432017210000039
:04000005080000ED02
:00000001FF
